:020000040800F2
:100000002011002051230008C9030008CB03000879
:10001000CF030008D3030008D70300080000000046
:10002000000000000000000000000000DB030008EA
:10003000DD03000800000000DF030008E103000802
:100040006B2300086B2300086B2300086B23000858
:100050006B2300086B2300086B2300086B23000848
:100060006B2300086B2300086B2300086B23000838
:100070006B2300086B2300086B2300086B23000828
:100080006B2300086B2300086B2300086B23000818
:100090006B2300086B2300086B2300086B23000808
:1000A0006B2300086B2300086B2300086B230008F8
:1000B0006B2300084F0900086B2300086B2300081E
:1000C0006B2300086B2300086B2300086B230008D8
:1000D0006B230008E7210008C92200080F1E000852
:1000E0006B2300086B2300086B2300086B230008B8
:1000F0006B2300086B2300086B2300086B230008A8
:100100006B2300086B2300086B2300086B23000897
:100110006B2300086B2300086B2300086B23000887
:100120006B2300086B2300086B2300086B23000877
:1001300000F002F800F090F80AA090E8000C824469
:100140008344AAF10107DA4501D100F085F8AFF246
:10015000090EBAE80F0013F0010F18BFFB1A43F0A5
:1001600001031847C4610000E4610000103A24BF95
:1001700078C878C1FAD8520724BF30C830C144BF0C
:1001800004680C607047000000230024002500264E
:10019000103A28BF78C1FBD8520728BF30C148BFEA
:1001A0000B6070476E2904F0AE80702904F027843C
:1001B000662905F0F886652905F0F586672905F0BA
:1001C000F286612905F0F18603681B0A28BF41F019
:1001D0008001692903F05886642903F05586752942
:1001E00003F052866F2904F0B483782904F0F38376
:1001F000E92904F04F83E42904F04C83F52904F045
:100200004983EF2904F0B183F82904F0F2830368ED
:10021000DB0928BF41F08001632904F0BE82732905
:1002200004F0C382E32904F07D86F32904F082867A
:10023000002070471FB504F063FC0400002000217B
:1002400005F0D8FB401C60600020002105F0BCFBDD
:10025000E0601FBD10B510BD04F056FF1146FFF75A
:10026000E9FF00F009F804F082FF03B4FFF7F2FFA2
:1002700003BC01F0CBFE0000ADF5007D002401F0D1
:100280005BFE4FF4A06002F081F84FF47A7001F049
:1002900090FE4FF47A7001F08CFE4FF47A7001F00A
:1002A00088FE4FF47A7001F084FE4FF47A7001F00A
:1002B00080FE4FF47A7001F07CFE4FF47A7001F00A
:1002C00078FE4FF47A7001F074FE42F2CF016320A1
:1002D00000F010FB4FF4E13001F0A8FE4FF4E130E4
:1002E00001F0F6FE4FF4165001F040FD01F07FFBE7
:1002F00000F07AF900F0E3FB22A325A226A1294809
:1003000000F096FE2849088008460188254800F03C
:100310001AFC4FF47A7001F04CFE4FF47A7001F041
:1003200048FE00F06DFC00F04DF901F0BEFD27E045
:10033000012001F03EFE641C642094FBF0F100FB00
:100340001140D8B919481A491A4B1B4ACDE9001077
:100350001A4903A800F07EFC19490880012000908A
:100360000846038803AA17A10E4800F074FF0E493F
:100370000880084601880B4800F0E5FB01F0EBFB24
:10038000D6E7000032303231303132360000000022
:10039000343033353031000036383437333230378B
:1003A000370000007C000020040000204C000020EA
:1003B0004D03002020030020F0020020D402002082
:1003C0000200002024647000704700BFFEE700BFF9
:1003D000FEE700BFFEE700BFFEE7704770477047CB
:1003E000704700000CB50020019000906C48006838
:1003F00040F480306A49086000BF6948006800F432
:10040000003000900198401C0190009818B90198A4
:10041000B0F5A06FF1D16248006800F4003010B16F
:100420000120009001E0002000900098012843D1B5
:100430005C48006840F010005A49086008460068AF
:1004400020F0030008600846006840F002000860E1
:10045000534840685249486008464068486008462A
:10046000406840F4806048600846406820F47C1092
:1004700048600846406840F4E81048600846006854
:1004800040F08070086000BF4548006800F00070D0
:100490000028F9D04248406820F0030040494860F5
:1004A0000846406840F00200486000BF3C48406891
:1004B00000F00C000828F9D10CBD10B5FFF792FF31
:1004C00010BD10B53648006840F00100344908609E
:1004D0000846406834490840314948600846006889
:1004E000324908402E4908600846006820F4802000
:1004F00008600846406820F4FE0048604FF41F0082
:100500008860FFF7DAFF4FF000602949086010BDEE
:1005100010B5002100200022214B5B6803F00C0184
:1005200021B1042906D0082928D107E0214B224C0B
:10053000236027E01F4B204C236023E0184B5B68AF
:1005400003F47010164B5B6803F48032022303EB54
:10055000904022B9194B4343174C23600DE0104BD8
:100560005B6803F4003323B1144B4343124C236004
:1005700003E0104B4343104C236003E00D4B0E4C43
:10058000236000BF00BF064B5B68C3F303130C4C32
:10059000E15C094B1B68CB40074C236010BD000099
:1005A00000100240002002400000FFF8FFFFF6FEAE
:1005B00008ED00E000127A000800002000093D006C
:1005C0000C000020002003E00021934A1154401C3D
:1005D000924909688842F7DB0021904A1160704710
:1005E00000208E490860704710B504228CA18E4807
:1005F00001F03EFE4FF4FA7001F0DBFC8BA186485F
:1006000003F04FFD8A49086010E0FFF7DBFF04228A
:1006100083A1854801F02CFE4FF4FA7001F0C9FC6B
:1006200082A17D4803F03DFD814908608048006853
:100630000028EAD008227FA17B4801F019FE4FF480
:10064000FA7001F0B6FC05227DA1774801F010FE9A
:100650004FF4FA7001F0ADFC0A227BA1724801F060
:1006600007FE4FF4FA7001F0A4FC7AA16A4803F087
:1006700018FD6F49086010E0FFF7A4FF0A2272A17D
:10068000694801F0F5FD4FF4FA7001F092FC71A198
:10069000614803F006FD6649086065480068002867
:1006A000EAD0FFF78FFF0B226EA15F4801F0E0FD5B
:1006B0004FF4FA7001F07DFC6DA1574803F0F1FC96
:1006C0005B4908606DA1544803F0EBFC6E4908607B
:1006D00016E0FFF777FF0B2262A1534801F0C8FD37
:1006E0004FF4FA7001F065FC61A14B4803F0D9FCAE
:1006F0004F49086061A1484803F0D3FC6249086093
:100700004B48006818B9604800680028E1D0FFF73E
:1007100059FF0A225DA1444801F0AAFD4FF4FA7086
:1007200001F047FCFFF74EFF0E225BA13E4801F0AF
:100730009FFD4FF4FA7001F03CFCFFF743FF1F22CE
:1007400059A1394801F094FD4FF4FA7001F031FCE1
:1007500036A1314803F0A5FC3549086009E04FF4A3
:10076000FA7001F026FC31A12B4803F09AFC3049C5
:1007700008602F4800680028F1D0FFF723FF0E2201
:1007800051A1294801F074FD4FF4FA7001F011FCF9
:1007900026A1214803F085FC2549086009E04FF4B3
:1007A000FA7001F006FC21A11B4803F07AFC2049F5
:1007B00008601F4800680028F1D0FFF703FF0C22F3
:1007C00045A1194801F054FD4FF4FA7001F0F1FB16
:1007D00016A1114803F065FC1549086009E04FF4C3
:1007E000FA7001F0E6FB11A10B4803F05AFC104926
:1007F00008600F4800680028F1D0FFF7E3FE0B22E5
:1008000039A1094801F034FD4FF4FA7001F0D1FB31
:10081000FFF7D8FE10BD0000900400205C0000200F
:1008200041540D0A00000000004400404F4B0000FE
:100830001C00002041542B4353510D0A00000000BE
:100840004154690D0A00000041542B4350494E3F6A
:100850000D0A00002B4350494E3A2052454144595D
:100860000000000041542B43475245473F0D0A000A
:100870002B43475245473A20302C31002B434752F7
:1008800045473A20302C35002000002041542B43AE
:100890004F50533F0D0A000041542B5149434C4FD8
:1008A00053453D300D0A000041542B5149435347F5
:1008B000503D312C312C22434D4E4554222C2222C6
:1008C0002C22222C300D0A0041542B514944454121
:1008D00043543D310D0A000041542B5149414354CA
:1008E0003D310D0A0000000041542B514941435451
:1008F0003F0D0A007FB505460C460121022002F09B
:10090000DCF8ADF80850ADF804400020ADF8060062
:10091000ADF80A0001A91D4802F0FEFB01221146B4
:100920001A4802F070FF0021184802F051FF1D2004
:100930008DF8000001208DF8010003208DF80200E1
:1009400001208DF80300684601F025FD7FBD10B53C
:1009500001210E4803F005FA012811D10C48007856
:10096000401C0B49087008460078022808DB00206C
:1009700008700120074908700021044802F028FF90
:100980000121024803F0FEF910BD00000004004000
:1009900028000020000000202DE9F043ADF5037D84
:1009A00006460D461746142101A803F012FC2C221E
:1009B000ECA1F84801F05CFC4FF4FA7001F0F9FA90
:1009C000F5A1F94803F06DFB814607E0F2A1F64876
:1009D00003F067FB8146642001F0EBFAB9F1000FE8
:1009E000F4D04FF4FA7001F0E4FAFFF7EBFD28467B
:1009F00003F069FB044623463246ECA106A80095A5
:100A000003F0DCF90D22ECA1E24801F031FC642096
:100A100001F0CFFA06A803F056FBC4B2224606A99D
:100A2000DC4801F025FC642001F0C3FA1A21D94802
:100A300002F0D6F900BF4021D64802F03FFA002864
:100A4000F9D0FFF7BFFD642001F0B3FA4FF47A70DC
:100A500001F0AFFA4FF47A7001F0ABFADA480068AF
:100A600000281CDD0024A046D8A1CF4803F019FBC4
:100A7000041E13D00C34D8A1204603F012FBB0F1B1
:100A800000080BD0A8EB0402214601A803F03AFBB2
:100A9000A8EB04022146384603F034FB09E0CA48BB
:100AA000006808B900BFFEE79DF8040008B900BF60
:100AB000FEE7FFF787FD0DF5037DBDE8F08310B578
:100AC0000E22C6A1B34801F0D3FB4FF47A7001F0B7
:100AD00070FA4FF47A7001F06CFAC4A1B24803F0D6
:100AE000E0FA044607E0C1A1AF4803F0DAFA044691
:100AF000642001F05EFA002CF5D0FFF763FD4FF49F
:100B00007A7001F056FA2E22B9A1A24801F0B0FB8A
:100B10004FF4FA7001F04DFA9FA1A34803F0C1FA17
:100B2000044607E09CA1A04803F0BBFA04466420F9
:100B300001F03FFA002CF5D04FF4FA7001F039FAC9
:100B4000FFF740FD10BDF0B589B005460C462021E9
:100B500001A803F03EFBFFF735FD2246B0A101A836
:100B600003F02CF901A803F0AEFAC7B23A4601A986
:100B7000884801F07DFB642001F01BFAADA18A4892
:100B800003F08FFA064604E0AAA1874803F089FA29
:100B90000646002EF8D0E2B229467E4801F068FBF6
:100BA000642001F006FA09B0F0BD2DE9F04180465D
:100BB0000D46A1A1404603F074FA0446A0A14046A8
:100BC00003F06FFA041E19D09FA1204603F069FAC2
:100BD0000446E61C7BA1601C03F063FA0446002077
:100BE00004F8010B304603F04FFA07462F6097A137
:100BF000404603F056FA2046BDE8F0810020FBE7AE
:100C000030B5B3B00025002000906F480068002880
:100C10001EDD6D48016801A801F047FB694601A887
:100C2000FFF7C3FF051E01D133B030BD294601A82F
:100C3000009A03F067FA0098002805DD002400E020
:100C4000641C00988442FBDB0098042800D100BF9C
:100C50000098E9E72DE9F047E6B004460E4617464E
:100C60009846DDF8BCA1DDF8B8917A4800780128F3
:100C70000AD1306804F0DAFE02460B46CDE90001E5
:100C8000754902A803F09AF87248007802280AD140
:100C9000706804F0CBFE02460B46CDE900016F49B7
:100CA00002A803F08BF86B48007803280AD1B068DB
:100CB00004F0BCFE02460B46CDE9000168A102A883
:100CC00003F07CF86348007804280AD1F86804F03F
:100CD000ADFE02460B46CDE90001714902A803F0C2
:100CE0006DF85C48007805280AD1386904F09EFE4A
:100CF00002460B46CDE900016A4902A803F05EF8FE
:100D00005448007806280AD1786904F08FFE02461C
:100D10000B46CDE90001644902A803F04FF84D48A5
:100D20000078072805D1614902A8D8F8002003F00F
:100D300045F84848007808280BD1D8F8080004F096
:100D400075FE02460B46CDE90001594902A803F0A1
:100D500035F840480078092802D109F17602A9E067
:100D6000ACE0000041542B51494F50454E3D312CD1
:100D7000302C22544350222C223138332E3233303F
:100D80002E34302E3333222C38302C302C310D0AB7
:100D900000000000004400402B51494F50454E3A9E
:100DA00020302C30000000009004002025732564C2
:100DB0000D0A0D0A2573000041542B514953454E2D
:100DC000443D300D0A0000005C0000206465766937
:100DD00063655F6964000000222C000041542B51C0
:100DE00049434C4F53453D300D0A00004F4B000026
:100DF00041542B51494F50454E3D312C302C2254FB
:100E00004350222C223138332E3233302E34302EC0
:100E10003339222C363030322C302C310D0A000080
:100E200041542B514953454E443D302C25640D0A05
:100E3000000000003E000000434C4F5345440000BA
:100E400072656376000000002C0000006D7A685F18
:100E5000303032002C000020B860000854620008D6
:100E60007B226461746173747265616D73223A5B95
:100E70007B226964223A22796177222C2264617490
:100E800061706F696E7473223A5B7B2276616C7558
:100E900065223A252D362E31667D5D7D5D7D000013
:100EA0004061000884610008C8610008FC60000817
:100EB0000C62000837A102A802F080FF44480078C5
:100EC0000A280BD1DAF8000004F0B0FD02460B4608
:100ED000CDE900013F4902A802F070FF3C480078CC
:100EE0000B2805D109F168023BA102A802F066FFB8
:100EF000374800780C280BD1DAF8040004F096FD8E
:100F000002460B46CDE90001424902A802F056FF15
:100F10002F480078401C2E490870084600780C289D
:100F200001DD0120087002A803F0CDF8C01C3A4989
:100F3000088002A803F0C7F885B201202070280AB3
:100F40006070A5702A4602A9E01C03F0DBF8E81CDB
:100F5000C0B266B0BDE8F0873EB500252FA207CA33
:100F60008DE8070000240FE02F48005D1DF80510F4
:100F7000884207D1681CC5B2684603F0A4F8A842AD
:100F800000D105E0601CC4B2284800688442EBDB55
:100F900000BF3EBD7B226461746173747265616DD4
:100FA00073223A5B7B226964223A22455F57222CE6
:100FB0002264617461706F696E7473223A5B7B2284
:100FC00076616C7565223A25737D5D7D5D7D0000DF
:100FD0002C000020986200087B22646174617374A5
:100FE0007265616D73223A5B7B226964223A224EFC
:100FF0005F53222C2264617461706F696E74732276
:101000003A5B7B2276616C7565223A25737D5D7D46
:101010005D7D0000E06200082A0000206D7A685FB4
:101020007465737400000000900400205C000020D0
:101030002DE9FF5F05468B46584603F044F81FFA3A
:1010400080F9029803F03FF887B2039803F03BF869
:101050001FFA80F809F10E001FFA80FA002F04DD54
:101060000AF1020038441FFA80FAB8F1000F04DDDB
:101070000AF1020040441FFA80FA10202870AAF1F9
:10108000020068700224BAF17F0F02DD0120A8700F
:10109000032400222046611C8CB22A5404222046DC
:1010A000611C8CB22A544D222046611C8CB22A54F9
:1010B00051222046611C8CB22A5454222046611CC5
:1010C0008CB22A542046611C8CB22A540422204639
:1010D000611C8CB22A54C0222046611C8CB22A5456
:1010E00000222046611C8CB22A5478222046611CC2
:1010F0008CB22A5409F47F4002122046611C8CB243
:101100002A542046611C8CB205F80090002605E0A8
:101110001BF80600A1196854701C86B24E45F7DB17
:1011200004EB090084B2002F16DD07F47F400212A1
:101130002046611C8CB22A542046611C8CB22F546C
:10114000002605E00298805DA1196854701C86B2E3
:10115000BE42F7DBE01984B2B8F1000F18DD08F4E5
:101160007F4002122046611C8CB22A542046611C2A
:101170008CB205F80080002605E00398805DA11977
:101180006854701C86B24645F7DB04EB080084B255
:10119000204604B0BDE8F09F2DE9F05F0546894682
:1011A00092469B46484602F08EFF87B2504602F0B8
:1011B0008AFF1FFA80F8002432222146641C6A54F8
:1011C000BBF1000F07D0381D4044C2B22046611C5D
:1011D0008CB22A5406E0B81C4044C2B22046611CBE
:1011E0008CB22A5407F47F4002122046611C8CB254
:1011F0002A542046611C8CB22F54002605E019F8B1
:101200000600A1196854701C86B2BE42F7DBE019D3
:1012100084B2BBF1000F0ED07748008800F47F4005
:1012200002122046611C8CB22A5473480278204670
:10123000611C8CB22A54002605E01AF80600A11998
:101240006854701C86B24645F7DB04EB080084B294
:101250002046BDE8F09F2DE9FF5F0546894692468E
:10126000DDF838B0484602F02EFF87B20024DDF8E2
:101270000C8032222146641C6A54BBF1000F07D057
:10128000381D4044C2B22046611C8CB22A5406E08C
:10129000B81C4044C2B22046611C8CB22A5407F4E8
:1012A0007F4002122046611C8CB22A542046611CE9
:1012B0008CB22F54002605E019F80600A1196854D5
:1012C000701C86B2BE42F7DBE01984B2BBF1000F9E
:1012D0000ED04A48008800F47F4002122046611C6C
:1012E0008CB22A54454802782046611C8CB22A549C
:1012F000002605E01AF80600A1196854701C86B291
:101300004645F7DB04EB080084B2204604B0BDE894
:10131000F09F01464020087002204870384800883D
:1013200000F47F400012887035480078C870344857
:101330000088401C324A1080042070472DE9F04795
:101340000546884692469946404602F0BCFE86B263
:101350000024B9F1000F05D080222046611C8CB218
:101360002A5404E0A2222046611C8CB22A54701D2B
:10137000C2B22046611C8CB22A542248008800F474
:101380007F4002122046611C8CB22A541D4802780C
:101390002046611C8CB22A5406F47F40021220467B
:1013A000611C8CB22A542046611C8CB22E5400273A
:1013B00005E018F80700E1196854781C87B2B742B5
:1013C000F7DBA01984B2B9F1000F03D005F804A02F
:1013D000601C84B22046BDE8F0870146C02008703A
:1013E00000204870022070470146E020087000206D
:1013F00048700220704700002E00002030000020BE
:1014000032000020340000200146FE480078062803
:101410006DD2DFE800F0030D202B435C552904D189
:101420000120F84A1070F8480170F848017062E035
:10143000552901D0AF2905D10220F24A1070F24897
:10144000417002E00020EF4A1070F0480078084434
:10145000EE4A10704FE0EC4881700320E94A1070AA
:10146000EA4800780844E94A107044E01C2911DC7D
:10147000E548C1700020E64A1070002901DD042013
:1014800000E00520DF4A1070E04800780844DF4A99
:10149000107002E00020DB4A10702CE0DA48001DDA
:1014A000DB4A12788154DA480078401CD84A107020
:1014B000D64800780844D54A1070D348C078D44A3A
:1014C0001278904202D10520CE4A107013E0CF4826
:1014D0000078884206D1CD480078CB4A82F82000B7
:1014E000012070470020C74A1070107003E00020F0
:1014F000C44A107000BF00BF0020F2E72DE9F041A0
:101500000446A07801283CD16079000200B221791C
:1015100040EA0105284604F0D9FB07464FF08E410A
:1015200004F012FB0646BB4904F0FCFBBA49086014
:10153000E079000200B2A17940EA0105284604F0F2
:10154000C5FB07464FF08E4104F0FEFA0646B1494E
:1015500004F0E8FBB0494860607A000200B2217AEA
:1015600040EA0105284604F0B1FB07464FF08E41E2
:1015700004F0EAFA0646A74904F0D4FBA6498860BD
:1015800086E1A078022840D16079000200B221797A
:1015900040EA0105284604F099FB06464FF08E41CB
:1015A00004F0D2FA9D490860E079000200B2A17906
:1015B00040EA0105284604F089FB06464FF08E41BB
:1015C00004F0C2FA95494860607A000200B2217ABC
:1015D00040EA0105284604F079FB06464FF08E41AB
:1015E00004F0B2FA8D498860E07A000200B2A17A74
:1015F00040EA0105284604F069FB06464FF08E419B
:1016000004F0A2FA8549C86042E1A07803287DD1A0
:101610006079000200B2217908438149C880E079ED
:10162000000200B2A17908437D490881607A000276
:1016300000B2217A08437A494881E07A000200B278
:10164000A17A084376490880607B000200B2217BC2
:10165000084373494880E07B000200B2A17B084345
:101660006F4988806F4949786F4A505C04F046FBA7
:1016700006466B49B1F9060004F028FB07464FF017
:101680008E4104F061FA0546314604F04BFB644993
:10169000886164494978644A505C04F02FFB06462F
:1016A0005F49B1F9080004F011FB07464FF08E4185
:1016B00004F04AFA0546314604F034FB5849C86143
:1016C00058494978584A505C04F018FB064654497A
:1016D000B1F90A0004F0FAFA07464FF08E4104F01F
:1016E00033FA0546314604F01DFB4D4908624D4969
:1016F00009784E4A32F8110004F000FB06464849CA
:10170000B1F9000004F0E2FA074600E03AE04FF0D9
:101710008E4104F019FA0546314604F003FB4049B6
:10172000C86040490978414A32F8110004F0E6FAED
:1017300006463B49B1F9020004F0C8FA07464FF0EB
:101740008E4104F001FA0546314604F0EBFA3449C3
:10175000086134490978354A32F8110004F0CEFAAC
:1017600006462F49B1F9040004F0B0FA07464FF0DD
:101770008E4104F0E9F90546314604F0D3FA2849D0
:10178000486185E0A078042824D16079000200B285
:101790002179084326490880E079000200B2A17946
:1017A000084323494880607A000200B2217A084346
:1017B0001F498880E07A000200B2A17A40EA010560
:1017C000284604F083FA06461A4904F0BDF9184980
:1017D00088605DE0A07805283FD1E0790106A07916
:1017E00041EA0041607941EA002021790843124929
:1017F0000860607A000200B2217A08430E498880AE
:10180000E07A1BE0420000202C030020430000206F
:101810004400002000003443D4020020E0020020F5
:10182000F00200203E000020B65F0008AE5F000816
:10183000140300200000C84220030020000200B270
:10184000A17A40EA0105284604F040FA064680499C
:1018500004F07AF97F4988601AE0A078062817D149
:101860002179607941EA00207B490880A179E079FB
:1018700041EA002078494880217A607A41EA0020D4
:1018800075498880A17AE07A41EA00207249C880CF
:10189000BDE8F0817CB506460C46154655208DF80E
:1018A0000000AF208DF801008DF802608DF8035024
:1018B000E0B28DF80400022D1CD120128DF8050035
:1018C0009DF800009DF8011008449DF8021008449E
:1018D0009DF8031008449DF8041008449DF8051075
:1018E0000844C0B28DF80600072269465B4800F044
:1018F000A2FC15E09DF800009DF8011008449DF839
:10190000021008449DF8031008449DF80410084490
:10191000C0B28DF8050006226946504800F08BFCE5
:101920007CBD1CB5044655208DF80000AF208DF815
:10193000010044F080008DF8020001208DF80300C2
:1019400000208DF804009DF800009DF80110084467
:101950009DF8021008449DF8031008449DF80410F7
:101960000844C0B28DF80500062269463B4800F0E5
:1019700062FC1CBDF8B506460C4600253046FFF754
:10198000D0FF33E00121684600F024FC28B39DF825
:101990000000FFF739FD48B331484078552803D19E
:1019A0002F48FFF7ABFD21E02D484078AF281DD12F
:1019B0002B48C078012803D12948007920800AE00B
:1019C0002748C078022806D125480179407941EAA4
:1019D000002000B220800120F8BD012000F0E9FACB
:1019E000681C85B2C82D01DD0020F5E7CAE708B5FF
:1019F000012203210846FFF74DFF01221146042072
:101A0000FFF748FF012200210846FFF743FF694620
:101A10000320FFF7AFFFBDF80000124908706946C8
:101A20000420FFF7A7FFBDF800000E494870694683
:101A30000520FFF79FFFBDF800000A49887069463E
:101A40000620FFF797FFBDF800000649C87008BDE3
:101A50000000C8422003002036000020003801406A
:101A60002C0300203E000020016082800023C38000
:101A7000038170470146C8880A89904204DBC88800
:101A80000A89801A80B2704788880A89801ACA88B1
:101A9000104480B2F7E700B503461846FFF7EAFFA7
:101AA0009988081A401E80B200BD0146C8880A897C
:101AB000904201D1012070470020FCE770B50B4631
:101AC00000210CE05C5CC6880568AC55C488641CC9
:101AD000858894FBF5F605FB1644C480491C9142A9
:101AE000F0DB70BDF0B505460E4614462846FFF7FC
:101AF000D2FF0746A74201DA0120F0BD2246314657
:101B00002846FFF7DBFF0020F7E7F0B503460E4657
:101B100014461846FFF7AEFF0546A54200DD2546F0
:101B200000200CE01A891968895C31541989491C14
:101B30009A8891FBF2F702FB17111981401CA84209
:101B4000F0DB2846F0BD0000044603E02146E9A092
:101B500002F028F9FAE72DE9F04F91B00027E848A4
:101B600090F8500000287CD00020E54981F8500012
:101B7000E4A002F017F9E24802F008F900BFE6E03D
:101B800047B9E5A1DE4802F08CFA051E6AD10120B2
:101B9000FFF7DAFF6D1CE0A1284602F082FA061E6C
:101BA00079D0072F2ED2DFE807F02D040B11181F74
:101BB0002600721B2946D248523002F0A3FA22E0D6
:101BC000721B294610A802F09DFA1CE0721B2946E0
:101BD000CB485D3002F096FA15E0721B2946C848E2
:101BE000683002F08FFA0EE0721B2946C4486A3052
:101BF00002F088FA07E0721B2946C148763002F0ED
:101C000081FA00E000BF00BF002405E0BC486A3054
:101C1000005D0EA90855641C052CF7DB062406E0C0
:101C2000B7486A30015DA01F0CAA1154641C0D2C2A
:101C3000F6DB0EA802F028FA80460CA802F024FA7F
:101C4000039004F043F80B90642098FBF0F9B3493B
:101C50000B9803F079FF09EBC90101EB0911029020
:101C600001E077E071E0A8EB810004F02FF801902B
:101C7000029903F007FFAA49039003F065FF0A9059
:101C8000484604F023F803900A9903F0FBFEA549A7
:101C90000860002406E055E099485D30005D08A921
:101CA0000855641C052CF7DB062406E094485D30DB
:101CB000015DA01F06AA1154641C0D2CF6DB08A8B8
:101CC00002F0E2F9824606A802F0DEF9039003F082
:101CD000FDFF059064209AFBF0FB9049059803F006
:101CE00033FF0BEBCB0101EB0B110290AAEB810050
:101CF00003F0ECFF0190029903F0C4FE88490390C1
:101D000003F022FF0490584603F0E0FF039004998B
:101D100003F0B8FE8349486035460120784981F8D0
:101D200051009DF84000412803D1012081F878003E
:101D300007E09DF84000562803D10020704981F843
:101D4000780002E00220FFF7FFFE781CC7B2062FE2
:101D50007FF716AF11B0BDE8F08F10B5C8217248FB
:101D600002F015FA00207149088010BD10B586B048
:101D700004460121082000F093FE0121880400F0B0
:101D80009CFE4FF40060ADF8040004208DF80700BD
:101D900001A9674800F0C8FB4FF48060ADF804006B
:101DA00003208DF8060018208DF8070001A960486F
:101DB00000F0BAFB27208DF8000003208DF8010009
:101DC0008DF8020001208DF80300684600F0E3FA68
:101DD00002940020ADF80C00ADF80E00ADF8100034
:101DE000ADF814000C20ADF8120002A9514800F023
:101DF000FEFE012240F225514E4800F090FF0121E5
:101E00004C4800F080FFFFF7A8FF06B010BD10B5EA
:101E100040F22551474801F067F8002839D045487D
:101E200000F0E2FFC4B2242C02D100203F49088018
:101E30003E4801880088401C3C4A10803A4844547F
:101E4000007824281ED1384800794D281AD1364808
:101E50004079432816D10A2C14D15021284802F089
:101E600096F9324802883049254802F04BF90120A2
:101E7000234981F8500000202C490880C8212A48B5
:101E800002F085F929480088C82802DBC8202749C4
:101E9000088010BD10B504462146234802F001F920
:101EA00008B1012010BD0020FCE710B50020144946
:101EB00081F8500081F8510081F8780050211048D5
:101EC00002F065F90E485230002101604160018145
:101ED00081720B3001604160018181725D38A0F830
:101EE00068106A300160416081606A38A0F876103D
:101EF00010BD00004552524F5225640D0A000000EB
:101F00004D0300202A2A2A2A2A2A2A2A2A2A2A2A69
:101F10002A2A0D0A000000002C00000000401C4688
:101F2000000070424C000020C60300204A00002040
:101F3000000C01400048004010B56FF0040000F0B4
:101F400074FA2E4800682E49B0FBF1F02D49087054
:101F50000846007800EB4001C1EBC0104FF6FF715E
:101F600001EAC0002849088010BD0146254A1278C0
:101F70004A434FF0E0235A6100229A611A461269DF
:101F800042F001021A6100BF4FF0E022106900F038
:101F900001021AB100F48032002AF5D04FF0E0229D
:101FA000126922F001024FF0E0231A6100229A61C7
:101FB00070470146144A12884A434FF0E0235A61A1
:101FC00000229A611A46126942F001021A6100BFAA
:101FD0004FF0E022106900F001021AB100F48032E3
:101FE000002AF5D04FF0E022126922F001024FF0F2
:101FF000E0231A6100229A61704700000800002067
:1020000000127A00560000205800002000BF7047E0
:1020100000BF704700BFC14A128802F04002002A88
:10202000F9D0C2B2BD4B1B1D1A80704710B586B0E7
:102030000446012144F2040000F032FD4FF4007028
:10204000ADF8140003208DF8160018208DF8170045
:1020500005A9B34800F068FA4FF48060ADF81400A9
:1020600004208DF8170005A9AD4800F05DFA252081
:102070008DF8000003208DF801008DF8020001208A
:102080008DF80300684600F086F901940020ADF851
:102090000800ADF80A00ADF80C00ADF810000C20F7
:1020A000ADF80E0001A99F4800F0A1FD012240F209
:1020B00025519C4800F033FE01219A4800F023FE90
:1020C0004FF4807298499948FFF7CEFC06B010BDD6
:1020D00010B586B004460121954800F0EEFC0420BE
:1020E000ADF8140003208DF8160018208DF81700A5
:1020F00005A98B4800F018FA0820ADF81400042058
:102100008DF8170005A9864800F00EFA26208DF8F4
:10211000000001208DF8010003208DF8020001204D
:102120008DF80300684600F036F901940020ADF800
:102130000800ADF80A00ADF80C00ADF810000C2056
:10214000ADF80E0001A97B4800F051FD012240F2DC
:102150002551784800F0E3FD0121764800F0D3FDD9
:1021600006B010BD00BF6F49098801F08001002949
:10217000F9D06C49091D0880091F098821F08001E8
:10218000684A1180704700B5034603E01878FFF7EE
:10219000E9FF5B1C18780028F8D100BD00BF654935
:1021A000098801F080010029F9D06249091D0880E1
:1021B000091F098821F080015E4A1180704700B52F
:1021C000034603E01878FFF7E9FF5B1C1878002846
:1021D000F8D100BD70B504460D462A462146534845
:1021E000FFF793FC70BD1CB540F225514D4800F03F
:1021F0007BFEF8B14B4800F0F7FDC0B2019040F211
:102200002551484800F09AFE012201A94748FFF7EE
:1022100069FC01216846FFF7DDFF58B19DF8000019
:10222000FFF7F2F830B144484078552802D14248CF
:10223000FFF764F91CBD2DE9F04107460C46154631
:102240004021384600F047FE00260DE014F8011B3F
:10225000384600F0C5FD00BF4021384600F02EFE94
:102260000028F9D0701CC6B2AE42EFDBBDE8F081A9
:102270002DE9F04107460C4615464021384600F04E
:102280002AFE00260DE014F8011B384600F0A8FDD8
:1022900000BF4021384600F011FE0028F9D0701C24
:1022A000C6B2AE42EFDBBDE8F0812DE9F041044655
:1022B0000F4622480578224E24B131460268204656
:1022C00001F020FFBDE8F08110B540F2255119481A
:1022D00000F00AFE08B3174800F086FDC4B240F2D1
:1022E0002551144800F02AFE144801680068401C7B
:1022F000124A10601248445410460068B0F5FA7F44
:1023000002DB00201146086001210E4801F060FA4E
:1023100000200D4908700D49087010BD00480040AC
:102320000008014000380140BC070020B007002031
:1023300004000200004400402C0300205C00002048
:10234000900400200004004028000020000000202D
:102350000948804709480047FEE7FEE7FEE7FEE739
:10236000FEE7FEE7FEE7FEE7FEE7FEE70448054975
:10237000034A054B70470000C30400083101000800
:1023800020090020201100202009002031490143AC
:10239000314A1160704770B5002100230F22C478C4
:1023A00004B32D4C246804F4E064C4F5E064210A0D
:1023B000C1F10403CA40447804FA03F1847814405C
:1023C00021430901254C0678A155047804F01F0526
:1023D0000124AC4005786D11AD0005F1E025C5F88C
:1023E000004109E0047804F01F050124AC401C4DB5
:1023F0000678761145F8264070BD1A4A0A40024315
:10240000154B1B1F1A60704739B1134A121D126811
:102410000243114B1B1D1A6006E00F4A121D126881
:1024200082430D4B1B1D1A607047042808D14FF0E2
:10243000E021096941F004014FF0E022116107E059
:102440004FF0E021096921F004014FF0E022116111
:10245000704700000000FA050CED00E000E400E029
:1024600080E100E080FFFF1F10B50446CC488442A5
:1024700008D10121042000F02DFB0021042000F0F0
:1024800029FB46E0C748844208D10121082000F01A
:1024900021FB0021082000F01DFB3AE0C2488442E5
:1024A00008D10121102000F015FB0021102000F0C0
:1024B00011FB2EE0BD48844208D10121202000F00C
:1024C00009FB0021202000F005FB22E0B8488442EF
:1024D00008D10121402000F0FDFA0021402000F049
:1024E000F9FA16E0B348844208D10121802000F0B7
:1024F000F1FA0021802000F0EDFA0AE0AE488442B3
:1025000007D10121801500F0E5FA0021A01500F0A7
:10251000E1FA10BD10B50121084600F0DBFA0021F8
:10252000012000F0D7FA10BD2DE9F0410246002548
:102530000026002000230024002791F803C00CF09F
:102540000F0591F803C00CF0100CBCF1000F03D084
:1025500091F802C04CEA050591F800C0BCF1000FEB
:1025600031D0146800202BE04FF0010C0CFA00F37E
:10257000B1F800C00CEA03069E4220D183004FF060
:102580000F0C0CFA03F7BC4305FA03FC4CEA0404F5
:1025900091F803C0BCF1280F06D14FF0010C0CFAE2
:1025A00000FCC2F814C00AE091F803C0BCF1480F67
:1025B00005D14FF0010C0CFA00FCC2F810C0401C11
:1025C0000828D1D31460B1F800C0BCF1FF0F34DD8E
:1025D000546800202EE000F1080C4FF0010808FAC2
:1025E0000CF3B1F800C00CEA03069E4221D183002F
:1025F0004FF00F0C0CFA03F7BC4305FA03FC4CEA4E
:10260000040491F803C0BCF1280F05D100F1080CB7
:1026100008FA0CF8C2F8148091F803C0BCF1480F16
:1026200007D100F1080C4FF0010808FA0CF8C2F8C5
:102630001080401C0828CED35460BDE8F0814FF6CE
:10264000FF710180022181700421C1707047024630
:10265000002093680B400BB1012000E00020704780
:102660000146886880B2704702460020D3680B405C
:102670000BB1012000E0002070470146C86880B21D
:10268000704701617047416170470AB1016100E024
:1026900041617047C16070474FF480320A438261E4
:1026A0008161826182698269704702460020434BE2
:1026B00018684FF68073184040EA021008433F4BF9
:1026C000186070473E49C8617047F0B50A4600235C
:1026D00000240021002500F00046B6F1004F02D191
:1026E000364EF16901E0354E7168C0F3034583B29F
:1026F00000F44016B6F5401F08D121F070612F4E4E
:10270000766826F070662D4F7E6012E000F4801629
:10271000B6F5801F06D1032606FA05F4A14341F061
:10272000706106E0460D360103FA06F6B14341F04A
:10273000706122B1460D360103FA06F6314300F00E
:102740000046B6F1004F02D11C4EF16101E01B4E74
:102750007160F0BD30B500228B071C0F0F2303FA08
:1027600004F2164B08338C1053F824309343134C67
:1027700008348D1044F8253023468C1053F824304B
:102780008C07240F00FA04F423430C4C08348D10FA
:1027900044F8253030BD0A49DC310860704700003C
:1027A00000080140000C01400010014000140140ED
:1027B00000180140001C01400020014000000140C1
:1027C00000002042DF48006840F00100DD49086059
:1027D00008464068DC490840DA4948600846006815
:1027E000DA490840D74908600846006820F480208C
:1027F00008600846406820F4FE0048604FF41F005F
:1028000088607047CF49096821F48031CD4A116052
:102810001146096821F480211160B0F5803F03D092
:10282000B0F5802F0ED106E0C649096841F4803129
:10283000C44A116007E0C349096841F4A021C14AB4
:10284000116000E000BF00BF704710B501460022D4
:10285000002300204A11012A02D1BA4C236806E065
:10286000022A02D1B74C236A01E0B64C636A01F038
:102870001F02012494401C400CB1012000E0002004
:1028800010BD38B5002000900024002500BF312085
:10289000FFF7DBFF05460098401C00900098B0F55C
:1028A000A06F01D0002DF2D03120FFF7CEFF08B18C
:1028B000012400E00024204638BD01460020A14A42
:1028C000106820F0F80040EAC10010607047A0498D
:1028D00008607047024600209A4B586820F47C102C
:1028E00042EA01031843974B5860704798490866BD
:1028F000704701460020934A506820F003000843C7
:10290000506070478F48406800F00C0070470146E7
:1029100000208C4A506820F0F00008435060704757
:1029200001460020874A506820F4E0600843506068
:10293000704701460020834A506820F4605040EA06
:10294000C1005060704729B17E4A527A02437D4BE4
:102950005A7204E07B4A527A82437A4B5A72704729
:102960007B49D8310860704701460020754A50689D
:1029700020F440400843506070470021714A2032E3
:102980001170704A82F82010012802D004280AD160
:1029900004E001216B4A2032117005E00521694AEB
:1029A0002032117000E000BF00BF70476949086025
:1029B00070476449096A0143624A11627047654978
:1029C00044390860704730B50021002200240023FC
:1029D0005C4D6D6805F00C0121B1042905D0082972
:1029E00023D105E05C4D056022E05B4D05601FE0F2
:1029F000544D6D6805F47012524D6D6805F48034C5
:102A0000022505EB92421CB9544D554305600BE07D
:102A10004C4D6D6805F400351DB1504D55430560B2
:102A200002E04D4D5543056002E04B4D056000BF8F
:102A300000BF444D6D6805F0F0010909484D6B5C1D
:102A40000568DD4045603F4D6D6805F4E061090AA9
:102A5000434D6B5C4568DD4085603A4D6D6805F41B
:102A60006051C90A3E4D6B5C4568DD40C560354D1F
:102A70006D6805F44041890B3A4D6B5CC568B5FB48
:102A8000F3F5056130BD29B12E4A526902432D4B41
:102A90005A6104E02B4A526982432A4B5A617047BB
:102AA00029B1284A92690243264B9A6104E0254ADB
:102AB00092698243234B9A61704729B1214AD269B6
:102AC0000243204BDA6104E01E4AD26982431D4B67
:102AD000DA61704729B11B4AD2680243194BDA60A8
:102AE00004E0184AD2688243164BDA60704729B175
:102AF000144A12690243134B1A6104E0114A126925
:102B00008243104B1A617047124940390860704780
:102B10000F49C86470470B49C87170470948406A3B
:102B200040F0807007494862704701460020054A1E
:102B300092680A400AB1012000E000207047014974
:102B400088727047001002400000FFF8FFFFF6FE99
:102B5000000042428004424200127A0000093D0017
:102B6000660000207600002010B50446FB48844231
:102B700009D101218803FFF7ADFF00214FF4804008
:102B8000FFF7A8FF32E0F648844209D1012148044A
:102B9000FFF7ADFF00214FF40030FFF7A8FF25E05D
:102BA000F048844209D101218804FFF7A0FF0021E9
:102BB0004FF48020FFF79BFF18E0EB48844209D1D7
:102BC0000121C804FFF793FF00214FF40020FFF715
:102BD0008EFF0BE0E548844208D101210805FFF78C
:102BE00086FF00214FF48010FFF781FF10BD2DE913
:102BF000F04786B005460E460024A24600BFA14617
:102C00000027B08900B100BF2F462C8A4CF6FF7018
:102C10000440F08804432C82AC894EF6F310044043
:102C2000B08831890843718908430443AC81AC8A78
:102C30004FF6FF400440B0890443AC8201A8FFF77F
:102C4000C2FEC648874202D1DDF810A001E0DDF8DF
:102C50000CA0A88900F4004040B10AEBCA0000EBC8
:102C60000A1031684900B0FBF1F807E00AEBCA002E
:102C700000EB0A1031688900B0FBF1F86420B8FB62
:102C8000F0F004012009642101FB1089A88900F4F7
:102C9000004040B1322000EBC900B0FBF1F000F081
:102CA0000700044308E0322000EB09106421B0FB68
:102CB000F1F000F00F0004432C8106B0BDE8F0876E
:102CC0004FF41651016000218180C18001810C21E7
:102CD000418100218181704710B502460020108A91
:102CE0004FF2FF0318400B884C8823438C88234302
:102CF000CC8823431843108210BD002101804180FD
:102D00008180C180704721B1828942F40052828162
:102D100004E082894DF6FF731A4082817047F0B556
:102D20000346002400260025002040F66A17B94219
:102D300000D100BF1846C1F3421401F01F0601275D
:102D400007FA06F5012C01D10C3004E0022C01D168
:102D5000103000E014301AB107682F43076002E01A
:102D60000768AF430760F0BD1AB1838A0B438382C3
:102D700002E0838A8B4383827047028A4FF6F073A6
:102D80001A400282028A0A430282704782894FF205
:102D9000FF731A40828182890A438281704721B180
:102DA000828942F00202828104E082894FF6FD733B
:102DB0001A4082817047028A4FF6DF731A400282FE
:102DC000028A0A430282704721B1028A42F4804299
:102DD000028204E0028A4BF6FF731A4002827047B7
:102DE000C1F308028280704701468888C0F308005A
:102DF0007047818941F0010181817047028BD2B215
:102E00000283028B42EA012202837047028B02F4A2
:102E10007F420283028B0A430283704721B1828A78
:102E200042F02002828204E0828A4FF6DF731A4069
:102E30008282704721B1828A42F01002828204E0CD
:102E4000828A4FF6EF731A408282704721B1828ADC
:102E500042F00802828204E0828A4FF6F7731A4039
:102E60008282704721B1828942F40042828103E06C
:102E70008289C2F30E028281704721B1828A42F4B4
:102E80000062828204E0828A4FF2FF731A408282DB
:102E90007047828A4FF6FB731A408282828A0A4305
:102EA0008282704721B1828A42F00202828204E06B
:102EB000828A4FF6FD731A408282704702460020D4
:102EC000B1F5007F00D100BF13880B400BB101208A
:102ED00000E00020704701F40072B2F5007F00D1DD
:102EE00000BFCA430280704770B502460024002329
:102EF0000025002040F66A16B14200D100BFC1F3A0
:102F0000421501F01F03012606FA03F3012D02D139
:102F10009689334006E0022D02D1168A334001E043
:102F2000968A33400C12012606FA04F416883440BF
:102F300013B10CB1012000E0002070BD10B50022DB
:102F4000002340F66A14A14200D100BF0A120124F6
:102F50009440A3B2DC43048010BD0000003801405F
:102F60000044004000480040004C00400050004039
:102F700010B50446FE48844208D10121C014FFF771
:102F8000A9FD0021E014FFF7A5FDC4E0B4F1804FD6
:102F900008D101210846FFF7AAFD00210120FFF713
:102FA000A6FDB8E0F348844208D101210220FFF7D2
:102FB0009EFD00210220FFF79AFDACE0EE4884421E
:102FC00008D101210420FFF792FD00210420FFF722
:102FD0008EFDA0E0E948844208D101210820FFF7D6
:102FE00086FD00210820FFF782FD94E0E44884423A
:102FF00008D101211020FFF77AFD00211020FFF7F2
:1030000076FD88E0DF48844208D101212020FFF7C7
:103010006EFD00212020FFF76AFD7CE0DA48844243
:1030200008D101214014FFF755FD00216014FFF77E
:1030300051FD70E0D548844209D10121C804FFF751
:1030400049FD00214FF40020FFF744FD63E0D04824
:10305000844209D101210805FFF73CFD00214FF40E
:103060008010FFF737FD56E0CA48844209D101219C
:103070004805FFF72FFD00214FF40010FFF72AFD50
:1030800049E0C548844208D101214020FFF72FFDC7
:1030900000214020FFF72BFD3DE0C048844208D1CD
:1030A00001218020FFF723FD00218020FFF71FFD75
:1030B00031E0BB48844208D101218015FFF717FD9C
:1030C0000021A015FFF713FD25E0B648844209D181
:1030D00001210804FFF7FEFC00214FF48030FFF7C8
:1030E000F9FC18E0B048844209D101214804FFF7F7
:1030F000F1FC00214FF40030FFF7ECFC0BE0AB4893
:10310000844208D101218804FFF7E4FC00214FF438
:103110008020FFF7DFFC10BD00220288944B98420C
:103120000ED0994B98420BD0B0F1804F08D0914B04
:10313000984205D0904B984202D0904B984204D1CF
:103140004FF68F731A404B881A438D4B984207D025
:103150008C4B984204D04FF6FF431A40CB881A4359
:1031600002808B8883850B880385814B98420BD026
:10317000854B984208D08B4B984205D08A4B984299
:1031800002D08A4B984201D10B7A038601238382B5
:10319000704770B5002400220023058C4FF6FE76A0
:1031A00035400584028C8388048B4FF68F752C4044
:1031B000B51E2C400D882C43751E2A400D892A43CC
:1031C0004D882A436A4DA8420BD06F4DA84208D0C3
:1031D000744DA84205D0744DA84202D0734DA84248
:1031E00013D14FF6F7752A404D892A434FF6FB75E8
:1031F0002A408D882A434FF6FF652B404FF6FF5536
:103200002B408D892B43CD892B4383800483CD882C
:103210008586028470BD70B5002400220023058CD1
:103220004FF6EF7635400584028C8388048B48F690
:10323000FF752C404FF6FF452C400D884FF6FF766A
:1032400006EA05252C434FF6DF752A400D8906EA6C
:1032500005152A434D8806EA05152A43444DA84220
:1032600002D0494DA8421DD14FF67F752A404D89A5
:103270004FF6FF7606EA05152A434FF6BF752A403A
:103280008D8806EA05152A434FF6FF352B404FF28D
:10329000FF752B408D8906EA85052B43CD8906EA0B
:1032A00085052B4383800483CD880587028470BD08
:1032B00070B5002400220023058C4FF6FF663540D0
:1032C0000584028C8388848B4FF68F752C404FF6D3
:1032D000FC752C400D882C434FF6FF552A400D8974
:1032E0004FF6FF7606EA05252A434D8806EA0525AE
:1032F0002A431F4DA84202D0234DA8421DD14FF2B0
:10330000FF752A404D894FF6FF7606EA05252A43C8
:103310004FF6FF352A408D8806EA05252A434EF6EA
:10332000FF752B404DF6FF752B408D8906EA05157C
:103330002B43CD8906EA05152B4383808483CD88F2
:103340008587028470BD70B5002200230024058C9F
:103350004EF6FF7635400584038C8488828B48F6D0
:10336000FF752A404FF6FF452A400D8820E00000F7
:10337000002C01400004004000080040000C004008
:10338000001000400014004000340140004C014097
:10339000005001400054014000180040001C004053
:1033A000002000400040014000440140004801402E
:1033B0004FF6FF7606EA05252A434DF6FF752B40AA
:1033C0000D8906EA05352B434D8806EA05352B4362
:1033D000FA4DA84202D0FA4DA84208D14BF6FF752B
:1033E0002C408D894FF6FF7606EA85152C438480A4
:1033F0008283CD88A0F84050038470BD828B4FF249
:10340000FF331A408283828B4FF6FF7303EA012356
:103410001A4382837047F0B50C46154600220021FE
:103420000026078C4EF6FF7C07EA0C070784828B88
:10343000018C4FF6FF7707EA043640F6FF473A4023
:103440004FF6FF7707EA05273A434FF6FF7707EA7B
:1034500003373A43D94FB8420ED0D94FB8420BD0B8
:10346000B0F1804F08D0D74FB84205D0D64FB84200
:1034700002D0D64FB84206D14DF6FF77394046F418
:103480008057394305E047F6FF57394044F48057E9
:10349000394382830184F0BD828B4FF6F3731A4067
:1034A0008283828B0A4382837047F0B50C461546AF
:1034B000002200210026078C4FF6FF6C07EA0C075C
:1034C0000784828B018C4FF6FF7707EA04264FF6BC
:1034D0000C773A404FF6FF7707EA03172F433A433A
:1034E000B64FB8420ED0B64FB8420BD0B0F1804FB5
:1034F00008D0B44FB84205D0B34FB84202D0B34F52
:10350000B84206D14FF6FF57394046F48077394329
:1035100005E04FF2FF57394044F480773943828306
:103520000184F0BD028B4FF2FF331A400283028BFD
:103530004FF6FF7303EA01231A4302837047F0B585
:103540000C461546002200210026078C4FF6EF7C22
:1035500007EA0C070784028B018C4FF6FF7707EA16
:10356000041640F6FF473A404FF6FF7707EA033765
:103570003A434FF6FF7707EA05273A438F4FB842A1
:103580000ED08F4FB8420BD0B0F1804F08D08D4F86
:10359000B84205D08C4FB84202D08C4FB84206D109
:1035A0004FF6DF77394046F01007394305E04FF614
:1035B0005F77394044F01007394302830184F0BD3E
:1035C000028B4FF6F3731A400283028B0A43028385
:1035D0007047F0B50C46154600220021068C4FF6C8
:1035E000FE773E400684028B018C4FF60C7632400B
:1035F0007E1C06EA03162E433243704EB0420ED0B4
:103600006F4EB0420BD0B0F1804F08D06D4EB0423B
:1036100005D06D4EB04202D06C4EB04206D14FF68E
:10362000FD76314044F00106314305E04FF6F57672
:10363000314044F00106314302830184F0BD70B58E
:1036400005460C465D4885420ED05D4885420BD04C
:10365000B5F1804F08D05B48854205D05A48854275
:1036600002D05A48854200D100E000BF208850B9FE
:103670002389A28861882846FFF7ABFFE1882846A6
:10368000FFF79EFF25E0208804280AD12389A2881D
:1036900061882846FFF753FFE1882846FFF742FF7D
:1036A00017E0208808280AD12389A2886188284643
:1036B000FFF7FBFEE1882846FFF7EEFE09E02389CD
:1036C000A28861882846FFF7A6FEE1882846FFF712
:1036D00095FE70BD2DE9F04105460C4600260127F8
:1036E000608808B9022600E00026A088012801D1E0
:1036F000022700E001272088A0B92389A2886188D9
:103700002846FFF766FFE1882846FFF759FF23891F
:103710003A4631462846FFF712FFE1882846FFF770
:1037200001FF13E02389A28861882846FFF707FF7D
:10373000E1882846FFF7F6FE23893A4631462846B7
:10374000FFF747FFE1882846FFF73AFFBDE8F08121
:103750000A884B881A438B881A43CB881A430B89F3
:103760001A434B891A438B891A43A0F844207047A7
:103770004FF6FF71818000210180C180418001727C
:1037800070470021018041808180C1800181418199
:103790008181C181704700210180418001218180A8
:1037A0000021C1800181704700210180418081801A
:1037B000C18001814181818170470000002C01405E
:1037C000003401400004004000080040000C0040AC
:1037D00021B1028842F00102028004E002884FF623
:1037E000FE731A400280704731B1B0F8442042F4B1
:1037F0000042A0F8442005E0B0F84420C2F30E02D5
:10380000A0F8442070471AB183890B43838102E0FA
:1038100083898B43838170478182704741EA020329
:10382000A0F8483070471AB183890B43838102E0C6
:1038300083898B438381704701894FF6F872114069
:10384000018170470A46002101894FF68F731940A4
:1038500011430181704730B504460D462946204684
:10386000FFF7F0FF208940F00700208130BD2DE9EF
:10387000F04104460D4616461F46602D06D13B46D4
:10388000012231462046FFF75AFE05E03B46012261
:1038900031462046FFF79DFE29462046FFF7D2FF1E
:1038A000208940F007002081BDE8F08130B50C464A
:1038B00000210189C9B24FF6FF7505EA03251543BA
:1038C00025432943018130BD2DE9F04105460E46CF
:1038D00017469846002443463A4631462846FFF7A5
:1038E000E5FF2C894FF6F870044044F007044FF6CA
:1038F0008F70044044F070042C81BDE8F081F0B575
:1039000004460D4616461F463B463246294620468B
:10391000FFF7CCFF208940F480402081F0BD018575
:10392000828270470A46002101884FF68F73194042
:10393000114301807047F0B50C4615461E46002124
:10394000002200230189028B038C4FF6F87739405F
:1039500021434FF6FC473A4040F201173A434FF6F5
:10396000DD773B404FF6FF7707EA06172F433B43CF
:10397000018102830384F0BD0A460021018B4FF6CA
:103980008F7319401143018370470A460021018B50
:1039900048F6FF7319404FF6FF7303EA02231943F9
:1039A000018370470A460021818B4FF68F731940BF
:1039B0001143818370470A460021818B48F6FF73CB
:1039C00019404FF6FF7303EA0223194381837047BE
:1039D00021B1028842F08002028004E002884FF6A2
:1039E0007F731A400280704721B1828842F004023E
:1039F000828004E082884FF6FB731A408280704711
:103A000021B1828842F00802828004E082884FF669
:103A1000F7731A408280704721B1828842F0010218
:103A2000828004E082884FF6FE731A4082807047DD
:103A30000A460021018B4FF6F773194011430183A9
:103A400070470A460021018B4FF2FF7319404FF671
:103A5000FF7303EA02231943018370470A460021DA
:103A6000818B4FF6F77319401143818370470A46E3
:103A70000021818B4FF2FF7319404FF6FF7303EA69
:103A800002231943818370470A460021018B4FF6B8
:103A9000FB7319401143018370470A460021018BD3
:103AA0004FF6FF3319404FF6FF7303EA0223194321
:103AB000018370470A460021818B4FF6FB73194042
:103AC0001143818370470A460021818B4FF6FF33F3
:103AD00019404FF6FF7303EA0223194381837047AD
:103AE0000A460021018B4FF67F7319401143018371
:103AF00070470A460021018BC1F30E014FF6FF7398
:103B000003EA02231943018370470A460021818B8F
:103B10004FF67F7319401143818370470A46002195
:103B2000818BC1F30E014FF6FF7303EA02231943A1
:103B3000818370470A460021018C4FF6FD731940BE
:103B40001143018470470A460021018C4FF6F77338
:103B500019401143018470470A460021018C4FF639
:103B6000DF7319404FF6FF7303EA02131943018410
:103B700070470A460021018C4FF67F7319404FF6BB
:103B8000FF7303EA02131943018470470A460021B8
:103B9000018C4FF6FF5319404FF6FF7303EA0223DF
:103BA0001943018470470A460021018C4FF2FF73CC
:103BB00019404FF6FF7303EA02231943018470474B
:103BC0000A460021018C4DF6FF7319404FF6FF7332
:103BD00003EA023319430184704730B500230124FE
:103BE0008C40A3B2048C9C430484048C02FA01F53B
:103BF000ADB22C43048430BD30B5002304248C4086
:103C0000A3B2048C9C430484048C02FA01F5ADB287
:103C10002C43048430BD70B50346002000241846B0
:103C2000183001258D40ACB21D8CA5431D8409B10F
:103C3000082909D100EB6100056825F070050560D1
:103C40000568154305600EE00D1FC5F34E052844B9
:103C5000056825F4E045056005684FF6FF7606EA3D
:103C600002263543056070BD21B1028842F0020290
:103C7000028004E002884FF6FD731A40028070470C
:103C800021B1028842F00402028004E002884FF66B
:103C9000FB731A400280704721B1828842F0800293
:103CA000828004E082884FF67F731A4082807047DA
:103CB00002884FF6F7731A40028002880A43028096
:103CC000704782884FF68F731A40828082880A4339
:103CD0008280704702894FF6F8731A400281028988
:103CE0000A430281704702894FF67F731A400281AE
:103CF00002890A4302817047818470478185704739
:103D0000818670470187704781877047A0F840100F
:103D1000704702884FF6FF431A40028002880A4328
:103D2000028070470146888E70470146088F7047B1
:103D30000146888F70470146B1F840007047014640
:103D4000888C70470146088D704702460020138A10
:103D50000B400BB1012000E000207047CA430282F3
:103D6000704730B50246002000230024158A05EA7A
:103D70000103958905EA010413B10CB1012000E0AB
:103D8000002030BDCA430282704770470FB4044917
:103D900010B503AA029800F00DFD10BC5DF814FBED
:103DA000600000200FB4044910B503AA029800F087
:103DB00001FD10BC5DF814FB600000200FB41CB5C1
:103DC000084B06AA7B4469460090059800F0C3FCA6
:103DD00004460020694600F0D1FC20461CBC5DF87A
:103DE00014FB0000B509000070B504468569006841
:103DF000C10601D5302600E02026C00707D070BDDF
:103E0000D4E9012130469047206A401C20626D1E93
:103E1000F6D570BD70B5044685690078C00707D136
:103E200070BDD4E9012120209047206A401C206207
:103E30006D1EF6D570BD70B50C460546012A05D03D
:103E40002878800600D5EA69002302E0012305E016
:103E50005B1C934202D2E05C0028F9D1A869E61805
:103E6000C01AA861286A184428622846FFF7BCFFD8
:103E700004E0D5E9012114F8010B9047B442F8D3CE
:103E80002846FFF7C7FF70BD2DE9F0410646002424
:103E900010687529314616A510D000F0C9F9002820
:103EA00002DA404213A507E031688A0701D512A55E
:103EB00002E0490704D511A5012401E000F0C1F991
:103EC00000210A2206F1240709E0B0FBF2FCB0FB56
:103ED000F2F302FB1C00303078541846491C0028CD
:103EE000F3D123462A463046BDE8F04100F0B2B98E
:103EF000000000002D0000002B000000200000004A
:103F00002DE9F05F894604464FF0000ADFF874B1EE
:103F1000FB44C0F820A02046E1688847002874D000
:103F2000252806D0D4E901219047206A401C206250
:103F3000F1E700265F462046E168884720280546CD
:103F400007DB312D05D2781910F8200C08B1064393
:103F5000F1E7B00701D526F00406C4F81CA000273D
:103F6000C4F818A02A2D09D0284601F025FD38B341
:103F700004EB8708303DC8F8185019E059F8041BC5
:103F8000204604EB87029161E1688847012F0546CE
:103F900018D1E069002820DA26F020061DE0D8F8C4
:103FA000180000EB800005EB40003038C8F818001E
:103FB0002046E1688847054601F0FEFC0028EED166
:103FC000012F0AD02E2D08D12046E16888477F1C9A
:103FD0000546022F46F02006C4DBA069002803DA5C
:103FE000404246F00106A061F00701D026F010061D
:103FF0006C2D0BD0682D09D04C2D39D06A2D35D0C1
:10400000742D35D07A2D33D016E038E0E1682F4694
:1040100020468847B842054609D16C2F26D04FF478
:104020008060E168064320468847054604E06C2F1F
:104030001AD04FF4807006430DB3A5F14100192842
:1040400002D8203546F400664A46294620462660B6
:104050004E46FCF7A7F880B101280BD0F61D26F0DC
:10406000070000F1080956E74020E4E78020D8E780
:104070000020D6E706F104094DE7284652E7206AFA
:10408000BDE8F09FA620000070B5064600F0CCF811
:104090000468054630460A22002100F0BBFC2C6073
:1040A00070BD30B505460B462A4613F8014B12F891
:1040B000010B08B1A042F8D01CB1002802D06D1C41
:1040C000F1E7284630BD10B5431C02E010F8011B93
:1040D00071B18107FAD14FF0013202C88C1A8C43BA
:1040E00014EAC211F9D0C01A0A0603D0C01E10BDCE
:1040F000C01A10BD0A0401D0801E10BD0902FCD0F8
:10410000401E10BD032A40F2308010F0030C00F076
:10411000158011F8013BBCF1020F624498BF11F801
:1041200001CB00F8013B38BF11F8013BA2F10402BA
:1041300098BF00F801CB38BF00F8013B11F0030332
:1041400000F0A084083AC0F0088051F8043B083A17
:1041500051F804CBA0E80810F5E7121D5CBF51F838
:10416000043B40F8043BAFF30080D20724BF11F8B2
:10417000013B11F801CB48BF11F8012B24BF00F817
:10418000013B00F801CB48BF00F8012B70474FF00E
:1041900000020429C0F0128010F0030C00F01B8014
:1041A000CCF1040CBCF1020F18BF00F8012BA8BF22
:1041B00020F8022BA1EB0C0100F00DB85FEAC17CE6
:1041C00024BF00F8012B00F8012B48BF00F8012B99
:1041D00070474FF0000200B51346944696462039CA
:1041E00022BFA0E80C50A0E80C50B1F12001BFF4B0
:1041F000F7AF090728BFA0E80C5048BF0CC05DF816
:1042000004EB890028BF40F8042B08BF704748BF63
:1042100020F8022B11F0804F18BF00F8012B7047D7
:10422000704770477047704700487047BC080020CF
:1042300009684A0501D540B27047C905FCD500B2EE
:10424000704709684A0501D5C0B27047C905FCD559
:1042500080B270472DE9F0470D46994692460446D4
:1042600000F124080168880604D5E06921F01001F6
:10427000216000E00120A84201DD471B00E000278B
:10428000A1697A1902EB0900081AA0612078C0061A
:1042900002D42046FFF7A8FD002608E0D4E901215A
:1042A0001AF806009047206A401C761C20624E4592
:1042B000F4DB2078C0060AD52046FFF795FD06E01E
:1042C000D4E9012130209047206A401C2062381E2A
:1042D000A7F10107F4DC07E0D4E9012118F8050093
:1042E0009047206A401C2062281EA5F10105F3DCDE
:1042F0002046FFF78FFD2078000602D50220BDE89A
:10430000F0870120FBE711680268006A530501D5B8
:1043100008700AE0D30501D5088006E0130603D52E
:10432000C217C1E9000200E0086001207047704731
:104330002DE9FF4F0C461E464FF0FF378BB0D2E9F8
:104340000001DDF860800A908A46C1F30A5505B97C
:104350003D46002108464FF00000BAF1000F00F47E
:10436000400005DA00EB80004FF4400101EA500004
:104370004FEA9059B9F1010F00DDB9460A9850EAA9
:104380004A000ED044F61050A5F2FF3545432F14D5
:10439000B8F1000F1ED07542291E1EDDC9F10002C2
:1043A0001CE0B8F1010F4FF0000001D0302103E014
:1043B000F24305E02154401CB042FBDB30460022B2
:1043C000002121540B99C1F80880C1E900200FB0E9
:1043D000BDE8F08FBD1B6D1CDEE74A4600DA69427E
:1043E00006A800F0FBFD06AB93E8070003AB83E8EB
:1043F000070050460A9900F003FF8DE80700A0F57A
:1044000000501F3800900398002D0ADD42F21F0172
:104410004A460844002303A90390684601F06CF95A
:1044200009E0A0F500504A461F38002303A9039075
:10443000684601F076F98DE807000004000C03D00F
:104440004FF0FF30410800E01046B8F1000F03D0F4
:104450000022009215461EE0751E05D400F054FBA4
:10446000303262556D1EF9D5B3460122084302D0A1
:1044700000227F1C04E02078302801D100227F1E1A
:10448000002A099784D01DE0112D07DA00F03CFBCB
:10449000303262556D1C50EA0102F5D1084302D05A
:1044A0000098C8B10EE00021681E05E0235C625C44
:1044B00063542254401E491C8142F7DBAB46A81BC3
:1044C000401E0990002004F80B000B98099AC0F8D0
:1044D0000880C0E9002B7AE711264FF0000857E763
:1044E0002DE9F04F88460446D21D22F0070191B015
:1044F000D1E90001CDE90A0101F04AFA02460B9820
:10450000C00F01D02D2007E02068810701D52B20A6
:1045100002E0202101EAC000032A099001D0072A05
:1045200005DB03464146204600F0B2FC0BE1207853
:10453000800601D5E06900E00620B8F1650F8146EC
:1045400006D0B8F1660F18D0B8F1670F70D131E01E
:104550000020B9F1110F009001DB112301E009F1F6
:1045600001030AAA01A90CA8FFF7E2FEDDE90C701D
:10457000002609F10105834647E001204B460090E3
:104580004FF000470AAA01A90CA8FFF7D1FEDDE908
:104590000DB00C995D46002610B909F101000D1807
:1045A000B9EB050003D4C0F1FF3609F10105A5EB15
:1045B00009002BE0B9F1010F01DA4FF001090020E9
:1045C000B9F1110F0090484601DD112300E00346C8
:1045D0000AAA01A90CA8FFF7ABFEDDE90C704D4655
:1045E00000268346207800070AD4AB4500DA5D46F2
:1045F00001A8012D04DD411911F8011C302907D053
:104600004F4502DA17F1040F04DA012082460FE069
:104610006D1EEEE7002F02DCED1B3E4403E0781C2C
:10462000A84200DD7D1CB81B00F1010A4FF00047D5
:104630002078000703D4AA4501DB4FF0FF3A0021A0
:10464000B7F1004F0DF143088DF8431024D002203C
:104650002B23002F01DA7F422D230A21021EA0F115
:10466000010000DC5FB197FBF1FC97FBF1F201FB6D
:104670001C7C17460CF1300C08F801CDEEE7A8F1D0
:10468000010003702188090501D5452100E065215D
:10469000A0F1010800F8011C09980FA9A1EB080777
:1046A000FF1D00B10120411901EBEA70A1693844F6
:1046B000081A401EA0612078C00602D42046FFF7E9
:1046C00093FB099828B1D4E901219047206A401C46
:1046D00020622078C00622D52046FFF785FB1EE029
:1046E000002E04DBB34502DD01A8805D00E0302030
:1046F000D4E901219047206A401C2062761CAAF16F
:1047000001005FEA000A0AD100F0FAF9C068016806
:10471000405CD4E901219047206A401C2062281E99
:10472000A5F10105DCDC07E0D4E9012118F8010B53
:104730009047206A401C2062381EA7F10107F3DC75
:104740002046FFF767FB032011B041E601694A1CD0
:1047500002610878704700B58FB0CDE901310021C2
:10476000059105497944CDE9031011466846FFF7E4
:10477000C7FB0FB000BD0000E5FFFFFF0A6802F8AD
:10478000010B0A60704710B5436913B1AFF30080A5
:1047900001E0FFF750FB012010BD127800F1240169
:1047A0000A7000224A700122EDE711684FF0FF32D3
:1047B000E9E70000074B70B50D467B44FFF7CBFFE0
:1047C0000446284600F07CFC10B14FF0FF3070BD6D
:1047D000204670BD57D8FFFF2DE9FF5F15468A467A
:1047E0000446DFF8AC80F8440027D8E900103E46C4
:1047F000CDE9001010E03AF816106A4602A800F061
:1048000063FC411C07D02178890603D5E269391879
:1048100091420DD80744761C2078800602D5E069C5
:10482000B84205DDAE42E6DB3AF816000028E2D1D8
:10483000A069C01BA0612046FFF7D6FAD8E9001096
:10484000CDE90010002017E03AF818106A4602A8D7
:1048500000F03AFCB0F1FF3F81460BD000250DF18E
:10486000080B05E0D4E901211BF8050090476D1CF9
:104870004D45F7D308F10100B0428046E4DB206AE1
:10488000384420622046FFF7C5FABDE8FF9F0000CC
:10489000E21700002DE9F0418046D21D22F0070208
:1048A0000025D2E90002F52915A614D0011E72F1E7
:1048B000000106DA0023D0EB030063EB020211A62D
:1048C00008E0D8F800108B0701D50FA602E04907D1
:1048D00001D50EA601251146002408F1240704E0A5
:1048E00000F012F930323A55641C50EA0102F7D157
:1048F0002B46324621464046BDE8F041FFF7AABCB0
:10490000000000002D0000002B000000200000002F
:1049100030B4002100F1240408E002F00705D208B9
:10492000303542EA4372DB086554491C52EA0305FC
:10493000F3D10468002310A2250707D5A40600D4EC
:1049400021B1C46901230DA2641EC46130BCFFF70C
:1049500081BC10B5044621461068FFF772FC024680
:104960002046BDE810400023D2E7D21D22F0070107
:10497000D1E90023CCE70000000000003000000077
:10498000F0B40D460188090502D5214C7C4402E0B3
:104990001F4C7C440E34002100F1240608E002F094
:1049A0000F071209E75D42EA03721B097754491C9D
:1049B00052EA0307F3D102780023120704D5702DC1
:1049C00006D009B1022311342246F0BCFFF742BCE5
:1049D00001231034F8E770B504460D4621461068EF
:1049E000FFF72FFC024629462046BDE87040002311
:1049F000C6E7D21D22F00703D3E90023C0E703680E
:104A0000126843F0200303600823C3610023B7E763
:104A1000441600002DE9F04791460F4680460446B3
:104A2000002614F8015B2DB100F062F80068405DCB
:104A3000C007F6D12B2D02D02D2D18D0641E4A466A
:104A40003946204600F07AFA27B13968A14201D1EF
:104A5000C7F800804FF0020471050BD540420028D2
:104A600003DDFFF7E1FB0460A007BDE8F08746F433
:104A70008066E4E70028F8DAFFF7D6FB04606FF001
:104A80000040F2E710B5203AC0F00B80B1E81850B2
:104A9000203AA0E81850B1E81850A0E81850BFF428
:104AA000F5AF5FEA027C24BFB1E81850A0E81850C7
:104AB00044BF18C918C0BDE810405FEA827C24BF1B
:104AC00051F8043B40F8043B08BF7047D20728BFA9
:104AD00031F8023B48BF11F8012B28BF20F8023BF8
:104AE00048BF00F8012B704700487047BC08002001
:104AF00010B500F005F8001D10BD00BFF90E000054
:104B000000487047DC08002030B5B0F10A024FEAD7
:104B1000900E71F100034EEA817EB0EB0E0061EB66
:104B200091014FEA101E4EEA017E10EB0E0041EBA0
:104B300011114FEA102E4EEA016E10EB0E0041EB00
:104B400011214FEA104E4EEA014E10EB0E0041EBE0
:104B50001141401841F100014FEAD00040EA417094
:104B60004FEAD10110EB80054FEA810444EA9074CA
:104B700044EB01046D1944EB0404521BA3414FF0B4
:104B8000000348BF0A3200D530BD401C41F100018E
:104B900030BD00002DE9F04F04460D46D21D22F035
:104BA000070089B0D0E900974846394600F0F0FE8A
:104BB0000246F80F01D02D2307E02068810701D5B8
:104BC0002B2302E0202101EAC0038DF820300BB135
:104BD000012000E00020032A824601D0072A04DBDE
:104BE0002946204600F054F93FE12078800601D4A0
:104BF0000D2500E0E569C7F30A560D2D49DA0021BD
:104C00004FEA175B08464FF00000002F00F4400009
:104C100007DA00EB80004FF4400100EBD07001EAAE
:104C200060008115012901DD4FF0FF3100224FEABC
:104C3000850CBCF1180F06D31346ACF118004FF0E9
:104C40008052C24003E04FF4801323FA0CF30CF1BE
:104C50000C0CBCF1200F04D3ACF1200C09FA0CF0C1
:104C600001E007FA0CF000294FF0004801DD18B907
:104C70000FE00ED140450CD319EB02095F4121B979
:104C8000404502D19F4329EA0209BBEB175F00D0E0
:104C9000761C2088000502D57B48784402E07A48DB
:104CA0007844193808AA302302F80A30037C0AF144
:104CB0000101002E0AF1020A53546A4602DC4FF049
:104CC000300101E04FF031014FF001088DF8001084
:104CD00002D0A6F2FF3603E059EA470100D06B4E3E
:104CE000002D02DC2178090704D54FF002082E219F
:104CF0008DF80110C44600210BE0C7F303433F01C8
:104D0000C35C491C6D1E02F80830052908F1010832
:104D100001DA002DF1DC00210CE000EB1973491CD5
:104D20001B786D1E082902F808304FEA091908F1AE
:104D3000010801DA002DF0DC21688B0602D516E0AF
:104D4000A8F10108E04505DD02EB080313F8013C7A
:104D5000302BF5D0B8F1000F09DD02EB080313F892
:104D6000013C2E2B03D1090701D4A8F10108002D25
:104D700005DD3E2102F808106D1E08F10108407C97
:104D8000002E02F8080008F1010804DA2D2076420E
:104D900002F8080002E02B2002F808000A214FF474
:104DA0007A70864208F101080BDB96FBF0F3303392
:104DB00002F8083096FBF0F308F1010800FB1366D7
:104DC00001E0642E0CDB642096FBF0F3303302F834
:104DD000083096FBF0F308F1010800FB136601E0D0
:104DE0000A2E06DB96FBF1F0303002F8080008F1DD
:104DF000010896FBF1F001FB1060303002F808006A
:104E0000A16908F1010808EB050202EB0A00081A83
:104E1000A0612078C00602D42046FEF7E5FF216A93
:104E200008AE01EB0A00206204E0D4E9012116F883
:104E3000010B9047BAF1010AF7D22078C00602D5DB
:104E40002046FEF7D1FF6E4609E016F8010B3E281A
:104E50000FD0D4E901219047206A401C2062B8F1AC
:104E60000108F2D22046FEF7D5FF09B00320BDE8C5
:104E7000F08F206A2844206203E0D4E90121302029
:104E800090476D1EEBD3F8E77113000002FCFFFFA3
:104E90002DE9F0411F46044603260168072A01F464
:104EA000006004DB08B116A505E016A503E008B113
:104EB00015A500E015A521F010002060A069C01E16
:104EC000A0610FB1401EA0612046FEF78DFF4FB1DB
:104ED000D4E9012138469047206A401C2062C01C5A
:104EE000206206E0206AFAE7D4E9012115F8010BF7
:104EF0009047761EF8D22046FEF78CFFBDE8F08181
:104F00004E414E006E616E00494E4600696E66006D
:104F100010B5436913B1AFF3008001E0FFF75CFC0B
:104F2000012010BD128800F1240182840022C28475
:104F30000122EDE711684FF0FF32E9E72DE9F05F5C
:104F4000824615468B4600270AF10104B9460078CF
:104F5000302801D09DB113E014F8010B0127782807
:104F600003D0582801D045B10AE00DB1102D07D16A
:104F7000002714F8010B102502E0082500E00A259F
:104F80000026B0460EE005FB080005FB06F10127F0
:104F90001FFA80F801EB1046B6F5803F00D3B94602
:104FA00014F8010B294600F0D4F80028EBDABBF125
:104FB000000F05D00FB1641E00E05446CBF800404E
:104FC000B9F1000F06D0FFF72FF902210160C81ECA
:104FD000BDE8F09F48EA0640FAE700002DE9F047F7
:104FE000814616468AB0354878440DC88DE80D00D4
:104FF00032487844801C03AC0DC884E80D0041F6AB
:105000009B300844372190FBF1F290FBF1F5A5F1BC
:10501000800501FB12041B3C02D56442012000E024
:105020000020DFF898A080460027FA44AAF1BE0AC3
:105030000EE0E0070AD03246684607EB470101233D
:105040000AEB810100F06DFB8DE8070064107F1C06
:10505000002CEED1194F7F44AE3F19E0E80715D080
:1050600007EB04100DF1180A90E80E008AE80E0014
:10507000C068F04201D1981908903246012306A970
:1050800003A800F04EFB03AB83E807006D10641C1F
:10509000002DE3D14FF0010332466946B8F1000F0D
:1050A00003A802D000F028FB01E000F03AFBC9E9B8
:1050B0000001C9F808200AB0BDE8F087B41000006C
:1050C000007B00F08000704770B516460C46054620
:1050D000FFF70EFD036893F80101012806D0FF2CAD
:1050E0000FD8185D68B101202C7070BDD3F807018E
:1050F0003246214603F2071303442846BDE87040B8
:1051000018474FF0FF3070BD7546FFF7EDFCAE4617
:1051100005006946534620F00700854618B020B5C3
:10512000FDF724F9BDE820404FF000064FF00007DE
:105130004FF000084FF0000B21F00701AC46ACE83F
:10514000C009ACE8C009ACE8C009ACE8C0098D46AC
:1051500070473A2800D2303820F02002412A01D38B
:10516000A2F13700884201D34FF0FF30704710B5ED
:105170000446AFF300802046BDE81040FBF775B849
:105180004FF0013C50F8042B51F8043B9A4221D1D6
:10519000A2EB0C03934313EACC1317D150F8042B62
:1051A00051F8043B9A4215D1A2EB0C03934313EA46
:1051B000CC130BD150F8042B51F8043B9A4209D17F
:1051C000A2EB0C03934313EACC13DBD04FF00000A7
:1051D000704700BFD01A01BAB1FA81F101F018018D
:1051E00022FA01F0CB40C1F12001DBB2C0B2C01AFB
:1051F0002CFA01F3D11A914311EAC311E6D1704799
:105200005FEA400C08BF91F0000F4FEA8C234FEA91
:10521000C12243EA51514FEA1C5018BF00F5F0403B
:105220004FEA300018BF41F000415FEA6C5C00F0CB
:105230002980BCF1FF3F08BF40F080407047130C4D
:1052400006BF12044FF0100C4FF0000C130E04BFF9
:1052500012020CF1080C130F04BF12010CF1040C24
:10526000930F04BF92000CF1020CD30F04BF520045
:105270000CF1010C11464FF00002A0F11F00A0EB51
:105280000C00704711F0004F08BF704731F000412B
:105290003FF4D5AF0B0C06BF09044FF0100C4FF0D4
:1052A000000C0B0E04BF09020CF1080C0B0F04BF1D
:1052B00009010CF1040C8B0F04BF89000CF1020CE6
:1052C000CB0F04BF49000CF1010CCCF12003A0EB83
:1052D0000C0022FA03F302FA0CF241EA030100F196
:1052E0000100704720F07F4C80EA030023F07F47E5
:1052F000ACEB070303F57C5300F0004003F1FF0320
:105300002DE980494FEA154B09B44FEA144325EAC9
:105310000B4E24EA03480FF2042606EB1327490834
:105320003E785FEA320203FB0667C7F5000707FB1A
:1053300006F64FEA54374FEAD64606F1020607FB57
:10534000066CCCF1005C4FEA1C472CEA074C07FBCB
:1053500006F40CFB06F504EB15464FEA961634BF2F
:1053600000204FF000404FEAD13706FB07FC4FEA20
:105370001C4C0CFB0BF7D21B03FB0CF761EB07017A
:105380000CFB0EF7B0EB074072EB17420CFB08F773
:1053900034BFA2EB0742B2EB074261EB17414FEA81
:1053A0000C444FEA910706FB07FC4FEA1C4C0CFB30
:1053B0000BF7B0EBC74072EB573203FB0CF734BF6F
:1053C000A2EBC742B2EBC74261EB57310CFB0EF7C1
:1053D000B0EBC70072EB57720CFB08F734BFA2EBBF
:1053E000C702B2EBC70261EB5771039F4FEA8161BD
:1053F00041EA921104EBCC044FEAD1374FEA8262C2
:1054000006FB07FC42EA90124FEA80604FEA1C4C10
:105410000CFB0BF7D21B03FB0CF761EB07010CFB3A
:105420000EF7B0EB074072EB17420CFB08F734BFE6
:10543000A2EB0742B2EB074261EB17414FEA8C55F2
:105440004FEA910704EB9C2406FB07FC4FEA1C4C37
:105450000CFB0BF7B0EBC74072EB573203FB0CF7BA
:1054600034BFA2EBC742B2EBC74261EB57310CFB32
:105470000EF7B0EBC70072EB57720CFB08F734BFA6
:10548000A2EBC702B2EBC70261EB577115EB4C25DB
:105490004FEA816141EA92114FEA82624FEAD137C5
:1054A00042EA901206FB07FC44F100044FEA8060D8
:1054B0004FEA1C4C0CFB0BF7D21B03FB0CF761EB08
:1054C00007010CFB0EF7B0EB074072EB17420CFB29
:1054D00008F734BFA2EB0742B2EB074261EB17417A
:1054E00015EB1C154FEA813141EA92414FEA8232B5
:1054F00042EA90424FEA80304FEA0C7644F10004D1
:1055000048EA03434EEA0B484FF0000EB2EB080C9A
:1055100071EB030724BF624639464EEB0E0E4FF087
:10552000000B0018524149414BEB0B0BB2EB080C3E
:1055300071EB03077BF1000B24BF624639464EEB4B
:105540000E0E4FF0000B0018524149414BEB0B0B74
:10555000B2EB080C71EB03077BF1000B24BF624632
:1055600039464EEB0E0E51EA020718BF46F001060F
:1055700016EB0E7655F1000254F1000103D5BDE89B
:105580008901BDE80088BDE88901BDE80048B61979
:10559000524141EB0101A3F10103704780807F7EFE
:1055A0007D7C7B7A79787776767574737271717099
:1055B0006F6E6E6D6C6C6B6A6A696868676666654B
:1055C0006464636362616160605F5F5E5E5D5D5CD9
:1055D0005C5B5B5A5A59595858575756565555554A
:1055E0005454535352525251515050504F4F4F4EAA
:1055F0004E4D4D4D4C4C4C4B4B4B4A4A4A494949F8
:105600004848484747474746464645454544444439
:10561000444343434342424242414141002B9C4662
:1056200030D477002BD01CB54FEA370703B44FF0C6
:1056300010004FF01001BAF1000F06D0BCF1000FBE
:10564000DCBF40F0080040F008014FF000000FBC44
:10565000BDE810400BF1010BBBF1010F08BF5FEA81
:10566000170722BF12F1010211F101014FF00041B1
:1056700043F1000300F0004043EA00007047F9D313
:105680005708D0E746EA064613F1400F4FEA1646A0
:105690001FDD13F1200FDFBF16430A460021203320
:1056A0005B42BED0C3F1200746EA064602FA07F77E
:1056B0004FEA164646EA0706C3F1200722FA03F22C
:1056C00001FA07F721FA03F14FF0000342EA07025B
:1056D000A7E746EA020646EA06464FEA164646EAC3
:1056E0000106BCBF46EA0646360C4FF000034FF0F9
:1056F00000024FF0000194E72DE9804C9A46934652
:1057000070B491E8380007C831EA400C48BF34EA69
:10571000430C03D5FFF7E6FDFFF780FFF0BCBDE8C3
:10572000008C2DE9804C9A46934670B491E838007D
:1057300007C810F0804F08BF13F0804F03D100F06E
:1057400005F8FFF76BFFF0BCBDE8008C20F07F4749
:1057500080EA030023F07F4C07EB0C03A3F57C5396
:1057600000F00040A3F1FE0392F0000F00F0B380C0
:1057700095F0000F00F077802DE901494FEA1140C4
:105780004FEA144621EA004800FB06FC24EA0647DB
:1057900008FB06F607FB08F800FB07F718EB0648BE
:1057A0004CEB164C4FEA124B18EB07484FEA1546E4
:1057B0004CEB174022EA0B4E0BFB06FC25EA064792
:1057C0000EFB06F607FB0EFE0BFB07F71EEB064E65
:1057D0004CEB164C4FF000061EEB074E4CEB174BF4
:1057E00018EB0B0840F1000018EB0E0B58EB00080B
:1057F00040F100008F1A4FF000013CBFC943661B07
:1058000014BFB5EB040C00213CBFC943F61B4FEAA3
:1058100017444EEA8E0E27EA04454FEA1C4704FB64
:1058200007622CEA074C05FB07F70CFB05F604FBA7
:105830000CFC16EB074642EB174216EB0C4642EB0C
:105840001C421BEB060658EB0202414146EA9E064B
:1058500001D5BDE80189B619524141EB0101A3F11F
:105860000103BDE801894FEA14454FEA114724EAD4
:10587000054621EA074C05FB07F406FB07F70CFB7E
:1058800006F105FB0CFC11EB074144EB17444FEA12
:10589000124711EB0C4144EB1C4422EA074C05FB78
:1058A00007F206FB07F70CFB06F605FB0CFC16EBF4
:1058B000074642EB174216EB0C4642EB1C456A18B2
:1058C00054F1000148BF7047B619524141EB010144
:1058D000A3F10103704795F0000F37D04FEA114252
:1058E0004FEA144721EA024624EA074C02FB07F17B
:1058F00006FB07F70CFB06F402FB0CFC14EB074459
:1059000041EB17414FEA154714EB0C4441EB1C41A6
:1059100025EA074C02FB07F506FB07F70CFB06F62A
:1059200002FB0CFC16EB074645EB174516EB0C4645
:1059300045EB1C42121951F1000148BF7047B619DE
:10594000524141EB0101A3F1010370474FEA1445B5
:105950004FEA114724EA054621EA074C05FB07F107
:1059600006FB07F70CFB06F24FF0000605FB0CFCEC
:1059700012EB074241EB174112EB0C4251EB1C4179
:1059800048BF7047921841EB0101A3F10103704732
:10599000490050EAC12018BF04204A0D18BF40F04A
:1059A000010040F2FF72B2EB515F08BF40F002000D
:1059B000012808BF0520704730380A2801D201208D
:1059C000704700207047000010B500290AD0087801
:1059D000002807D005487844FFF7D2FB002801D003
:1059E000002010BD0248784410BD0000720900007C
:1059F0006A09000010B500290AD00878002807D0ED
:105A000005487844FFF7BCFB002801D0002010BDFA
:105A10000248784410BD0000620900005A090000E5
:105A20000808A0F500114FEA3101704743004FEA22
:105A3000D30C4FEA3C0C43401FBF40070CF16051B0
:105A400013F0FE4F70471CF0006F03D100200CF0E4
:105A5000004170470CF0004343EA507010B540EA33
:105A6000CC0000F0E0F900BF000000924FEA000116
:105A7000FFF7D6BF4FF000414FF00000A1F5002125
:105A80007047000090EA010F48BF81F0004100F12B
:105A90001C82421A3CBF801A89184FEAD0524FF03C
:105AA0007F4C1CEA410FA2EBD15318BF9CEA026F56
:105AB00000F03B804FF0004C4CEA00204CEA012102
:105AC00021FA03FC10EB0C0C1ED202F1FF325FEA4C
:105AD0001C2040EBC25038BF70471CF07F0F4FEACC
